:020000040800F2
:1000000078180020B9020008BD020008BF020008ED
:10001000C1020008C3020008C50200080000000079
:10002000000000000000000000000000C7020008FF
:10003000C902000800000000CB020008CD02000841
:10004000CF020008CF020008CF020008CF0200084C
:10005000CF020008CF020008CF020008CF0200083C
:10006000CF020008CF020008CF020008CF0200082C
:10007000CF020008CF020008CF020008CF0200081C
:10008000CF020008CF020008CF020008CF0200080C
:10009000CF020008CF020008CF020008CF020008FC
:1000A000CF020008CF020008CF020008CF020008EC
:1000B000B51B0008ED1B0008A11C0008CF020008BA
:1000C000CF020008CF020008CF020008CF020008CC
:1000D000CF020008951D0008F51D0008CF0200089A
:1000E000CF020008CF020008CF020008CF020008AC
:1000F000CF020008CF020008CF020008CF0200089C
:10010000CF020008CF020008CF020008CF0200088B
:10011000CF020008CF020008CF020008CF0200087B
:10012000CF020008CF020008CF020008CF0200086B
:1001300000F002F800F0B0F80AA090E8000C824449
:100140008344AAF10107DA4501D100F0A5F8AFF226
:10015000090EBAE80F0013F0010F18BFFB1A43F0A5
:1001600001031847E43F0000044000000A444FF038
:10017000000C10F8013B13F0070408BF10F8014B06
:100180001D1108BF10F8015B641E05D010F8016B4B
:10019000641E01F8016BF9D113F0080F1EBF10F8AF
:1001A000014BAD1C0C1B09D16D1E58BF01F801CBD2
:1001B000FAD505E014F8016B01F8016B6D1EF9D555
:1001C0009142D6D37047000000230024002500266A
:1001D000103A28BF78C1FBD8520728BF30C148BFAA
:1001E0000B6070476E2900F01E83702900F06B8150
:1001F000662903F0E086652903F0DD86672903F0B0
:10020000DA866129AFF3008003681B0A28BF41F03A
:100210008001692900F0DC80642900F0D98075290B
:1002200000F0D6806F2900F01684782900F037811D
:10023000E92900F0B183E42900F0AE83F52900F04C
:10024000AB83EF2900F01384F82900F036810368AE
:10025000DB0928BF41F08001632900F02083732966
:1002600000F02583E32900F06986F32900F06E860B
:10027000002070471FB500F0C3FE040000200021DD
:1002800003F0E0FB401C60600020002103F0C4FB91
:10029000E0601FBD10B510BD00F084FE1146FFF7F1
:1002A000E9FF02F009F900F05DFF03B4FFF7F2FF88
:1002B00003BC01F03EFE000008480047FEE7FEE7F1
:1002C000FEE7FEE7FEE7FEE7FEE7FEE7FEE7FEE706
:1002D00003480449044A054B7047000031010008F7
:1002E000781200207818002078140020781400205C
:1002F000704700001CB50C46064B7B4469460090D5
:10030000204600F0AAFA04460020694600F0B8FA38
:1003100020461CBD830500000FB4044910B503AA94
:10032000029800F0C9FA10BC5DF814FB1000002020
:1003300070B5044685690068C10601D5302600E025
:100340002026C00707D070BDD4E901213046904770
:10035000206A401C20626D1EF6D570BD70B5044643
:1003600085690078C00707D170BDD4E9012120203C
:100370009047206A401C20626D1EF6D570BD70B596
:100380000C460546012A05D02878800600D5EA6982
:10039000002302E0012305E05B1C934202D2E05CF3
:1003A0000028F9D1A869E618C01AA861286A18447B
:1003B00028622846FFF7BCFF04E0D5E9012114F8C4
:1003C000010B9047B442F8D32846FFF7C7FF70BD32
:1003D0002DE9F0410646002410687529314616A51E
:1003E00010D000F0B5F9002802DA404213A507E06A
:1003F00031688A0701D512A502E0490704D511A585
:10040000012401E000F0ADF900210A2206F12407E1
:1004100009E0B0FBF2FCB0FBF2F302FB1C00303051
:1004200078541846491C0028F3D123462A46304602
:10043000BDE8F04100F09EB9000000002D00000072
:100440002B00000020000000F0B40D4601880905D3
:1004500002D5214C7C4402E01F4C7C440E34002128
:1004600000F1240608E002F00F071209E75D42EAF6
:1004700003721B097754491C52EA0307F3D102782F
:100480000023120704D5702D06D009B102231134C0
:100490002246F0BC00F06EB901231034F8E770B5C5
:1004A00004460D462146106800F05BF902462946D5
:1004B0002046BDE870400023C6E7D21D22F00703A6
:1004C000D3E90023C0E70368126843F02003036008
:1004D0000823C3610023B7E7623B00002DE9F05F0A
:1004E000894604464FF0000ADFF874B1FB44C0F8B7
:1004F00020A02046E1688847002874D0252806D02F
:10050000D4E901219047206A401C2062F1E70026CF
:100510005F462046E16888472028054607DB312DE5
:1005200005D2781910F8200C08B10643F1E7B0079E
:1005300001D526F00406C4F81CA00027C4F818A0B2
:100540002A2D09D0284601F0EDFC38B304EB8708CA
:10055000303DC8F8185019E059F8041B204604EB48
:1005600087029161E1688847012F054618D1E0694B
:10057000002820DA26F020061DE0D8F8180000EB4D
:10058000800005EB40003038C8F818002046E168CC
:100590008847054601F0C6FC0028EED1012F0AD09D
:1005A0002E2D08D12046E16888477F1C0546022F82
:1005B00046F02006C4DBA069002803DA404246F07A
:1005C0000106A061F00701D026F010066C2D0BD0BB
:1005D000682D09D04C2D39D06A2D35D0742D35D0E9
:1005E0007A2D33D016E038E0E1682F462046884760
:1005F000B842054609D16C2F26D04FF48060E168DF
:10060000064320468847054604E06C2F1AD04FF475
:10061000807006430DB3A5F14100192802D820359A
:1006200046F400664A462946204626604E46FFF7B5
:10063000D9FD80B101280BD0F61D26F0070000F18E
:10064000080956E74020E4E78020D8E70020D6E7F5
:1006500006F104094DE7284652E7206ABDE8F09FFD
:10066000F23A000030B505460B462A4613F8014B16
:1006700012F8010B08B1A042F8D01CB1002802D03A
:100680006D1CF1E7284630BD10B5431C02E010F8A0
:10069000011B71B18107FAD14FF0013202C88C1AE7
:1006A0008C4314EAC211F9D0C01A0A0603D0C01E46
:1006B00010BDC01A10BD0A0401D0801E10BD090271
:1006C000FCD0401E10BD00004FF0013C50F8042B40
:1006D00051F8043B9A4221D1A2EB0C03934313EA55
:1006E000CC1317D150F8042B51F8043B9A4215D182
:1006F000A2EB0C03934313EACC130BD150F8042B59
:1007000051F8043B9A4209D1A2EB0C03934313EA3C
:10071000CC13DBD04FF00000704700BFD01A01BAF5
:10072000B1FA81F101F0180122FA01F0CB40C1F1D8
:100730002001DBB2C0B2C01A2CFA01F3D11A9143E6
:1007400011EAC311E6D17047704770477047704790
:1007500009684A0501D540B27047C905FCD500B209
:10076000704709684A0501D5C0B27047C905FCD574
:1007700080B270472DE9F0470D46994692460446EF
:1007800000F124080168880604D5E06921F0100111
:10079000216000E00120A84201DD471B00E00027A6
:1007A000A1697A1902EB0900081AA0612078C00635
:1007B00002D42046FFF7BCFD002608E0D4E9012161
:1007C0001AF806009047206A401C761C20624E45AD
:1007D000F4DB2078C0060AD52046FFF7A9FD06E025
:1007E000D4E9012130209047206A401C2062381E45
:1007F000A7F10107F4DC07E0D4E9012118F80500AE
:100800009047206A401C2062281EA5F10105F3DCF8
:100810002046FFF7A3FD2078000602D50220BDE8A0
:10082000F0870120FBE711680268006A530501D5D3
:1008300008700AE0D30501D5088006E0130603D549
:10084000C217C1E9000200E0086001207047000003
:1008500001694A1C02610878704700B58FB0CDE984
:1008600001310021059105497944CDE90310114674
:100870006846FFF733FE0FB000BD0000E5FFFFFF45
:100880000A6802F8010B0A60704710B5436913B19A
:10089000AFF3008001E0FFF772FD012010BD127878
:1008A00000F124010A7000224A700122EDE711686C
:1008B0004FF0FF32E9E70000074B70B50D467B446F
:1008C000FFF7CBFF0446284600F044FB10B14FF081
:1008D000FF3070BD204670BDDB1B00002DE9FF5FBF
:1008E00015468A460446DFF8AC80F8440027D8E96C
:1008F00000103E46CDE9001010E03AF816106A46A6
:1009000002A800F02BFB411C07D02178890603D5F3
:10091000E269391891420DD80744761C2078800688
:1009200002D5E069B84205DDAE42E6DB3AF81600D2
:100930000028E2D1A069C01BA0612046FFF7F8FCA7
:10094000D8E90010CDE90010002017E03AF818109F
:100950006A4602A800F002FBB0F1FF3F81460BD0CF
:1009600000250DF1080B05E0D4E901211BF8050075
:1009700090476D1C4D45F7D308F10100B042804609
:10098000E4DB206A384420622046FFF7E7FCBDE83C
:10099000FF9F0000063700002DE9F0418046D21D80
:1009A00022F007020025D2E90002F52915A614D08D
:1009B000011E72F1000106DA0023D0EB030063EBA5
:1009C000020211A608E0D8F800108B0701D50FA687
:1009D00002E0490701D50EA601251146002408F1C1
:1009E000240704E000F04EF830323A55641C50EA17
:1009F0000102F7D12B46324621464046BDE8F04180
:100A0000FFF7B8BE000000002D0000002B00000022
:100A10002000000030B4002100F1240408E002F0BE
:100A20000705D208303542EA4372DB086554491C99
:100A300052EA0305F3D10468002310A2250707D565
:100A4000A40600D421B1C46901230DA2641EC461AF
:100A500030BCFFF78FBE10B5044621461068FFF783
:100A600080FE02462046BDE810400023D2E7D21D9A
:100A700022F00701D1E90023CCE7000000000000CC
:100A80003000000030B5B0F10A024FEA900E71F16B
:100A900000034EEA817EB0EB0E0061EB91014FEA5C
:100AA000101E4EEA017E10EB0E0041EB11114FEAD1
:100AB000102E4EEA016E10EB0E0041EB11214FEAB1
:100AC000104E4EEA014E10EB0E0041EB1141401862
:100AD00041F100014FEAD00040EA41704FEAD101F4
:100AE00010EB80054FEA810444EA907444EB010462
:100AF0006D1944EB0404521BA3414FF0000348BF9F
:100B00000A3200D530BD401C41F1000130BD7047B4
:100B10002DE9FF4F0C461E464FF0FF378BB0D2E950
:100B20000001DDF860800A908A46C1F30A5505B9D4
:100B30003D46002108464FF00000BAF1000F00F4D6
:100B4000400005DA00EB80004FF4400101EA50005C
:100B50004FEA9059B9F1010F00DDB9460A9850EA01
:100B60004A000ED044F61050A5F2FF3545432F142D
:100B7000B8F1000F1ED07542291E1EDDC9F100021A
:100B80001CE0B8F1010F4FF0000001D0302103E06C
:100B9000F24305E02154401CB042FBDB304600220A
:100BA000002121540B99C1F80880C1E900200FB041
:100BB000BDE8F08FBD1B6D1CDEE74A4600DA6942D6
:100BC00006A800F061FA06AB93E8070003AB83E8E0
:100BD000070050460A9900F0CEFA8DE80700A0F50C
:100BE00000501F3800900398002D09DD42F21F01CC
:100BF0004A46084403A90390684600F02DFD08E02A
:100C0000A0F500504A461F3803A90390684600F03B
:100C100037FD8DE807000004000C03D04FF0FF30D3
:100C2000410800E01046B8F1000F03D00022009206
:100C300015461EE0751E05D4FFF724FF30326255BD
:100C40006D1EF9D5B3460122084302D000227F1C55
:100C500004E02078302801D100227F1E002A099765
:100C600086D01DE0112D07DAFFF70CFF30326255F8
:100C70006D1C50EA0102F5D1084302D00098C8B1BA
:100C80000EE00021681E05E0235C625C6354225480
:100C9000401E491C8142F7DBAB46A81B401E099051
:100CA000002004F80B000B98099AC0F80880C0E9EE
:100CB000002B7CE711264FF0000859E72DE9F04F93
:100CC00088460446D21D22F0070191B0D1E9000107
:100CD000CDE90A0101F012F902460B98C00F01D0CC
:100CE0002D2007E02068810701D52B2002E020217C
:100CF00001EAC000032A099001D0072A05DB034658
:100D00004146204600F080F90BE12078800601D5AD
:100D1000E06900E00620B8F1650F814606D0B8F121
:100D2000660F18D0B8F1670F70D131E00020B9F12B
:100D3000110F009001DB112301E009F101030AAA60
:100D400001A90CA8FFF7E4FEDDE90C70002609F10B
:100D50000105834647E001204B4600904FF00047D5
:100D60000AAA01A90CA8FFF7D3FEDDE90DB00C9982
:100D70005D46002610B909F101000D18B9EB050018
:100D800003D4C0F1FF3609F10105A5EB09002BE002
:100D9000B9F1010F01DA4FF001090020B9F1110F8B
:100DA0000090484601DD112300E003460AAA01A98C
:100DB0000CA8FFF7ADFEDDE90C704D46002683461A
:100DC000207800070AD4AB4500DA5D4601A8012D62
:100DD00004DD411911F8011C302907D04F4502DA12
:100DE00017F1040F04DA012082460FE06D1EEEE7D2
:100DF000002F02DCED1B3E4403E0781CA84200DD1E
:100E00007D1CB81B00F1010A4FF000472078000755
:100E100003D4AA4501DB4FF0FF3A0021B7F1004FA0
:100E20000DF143088DF8431024D002202B23002F0E
:100E300001DA7F422D230A21021EA0F1010000DC0D
:100E40005FB197FBF1FC97FBF1F201FB1C7C1746AD
:100E50000CF1300C08F801CDEEE7A8F101000370A9
:100E60002188090501D5452100E06521A0F101088F
:100E700000F8011C09980FA9A1EB0807FF1D00B19C
:100E80000120411901EBEA70A1693844081A401E9B
:100E9000A0612078C00602D42046FFF749FA0998DD
:100EA00028B1D4E901219047206A401C20622078B3
:100EB000C00622D52046FFF73BFA1EE0002E04DBD9
:100EC000B34502DD01A8805D00E03020D4E90121B6
:100ED0009047206A401C2062761CAAF101005FEA5C
:100EE000000A0AD100F08CF8C0680168405CD4E9BF
:100EF00001219047206A401C2062281EA5F10105AF
:100F0000DCDC07E0D4E9012118F8010B9047206AE6
:100F1000401C2062381EA7F10107F3DC2046FFF7D2
:100F20001DFA032011B043E610B5436913B1AFF3C6
:100F3000008001E0FFF7D2FC012010BD128800F113
:100F4000240182840022C2840122EDE711684FF05F
:100F5000FF32E9E7007B00F08000704770B516466D
:100F60000C46054600F044F8036893F80101012897
:100F700006D0FF2C0FD8185D68B101202C7070BD11
:100F8000D3F807013246214603F2071303442846EB
:100F9000BDE8704018474FF0FF3070BD0048704703
:100FA000181200207546FFF7F9FFAE4605006946A6
:100FB000534620F00700854618B020B5FFF788F9A2
:100FC000BDE820404FF000064FF000074FF000084A
:100FD0004FF0000B21F00701AC46ACE8C009ACE8CB
:100FE000C009ACE8C009ACE8C0098D4670470000F4
:100FF00010B500F005F8001D10BD00BF492A000023
:1010000000487047381200202DE9F0411F46044681
:1010100003260168072A01F4006004DB08B116A565
:1010200005E016A503E008B115A500E015A521F01F
:1010300010002060A069C01EA0610FB1401EA06119
:101040002046FFF775F94FB1D4E9012138469047A2
:10105000206A401C2062C01C206206E0206AFAE779
:10106000D4E9012115F8010B9047761EF8D22046ED
:10107000FFF774F9BDE8F0814E414E006E616E00DD
:10108000494E4600696E66002DE9F04781461646D6
:101090008AB0334878440DC88DE80D003048784454
:1010A000801C03AC0DC884E80D0041F69B30084459
:1010B000372190FBF1F290FBF1F5A5F1800501FBE2
:1010C00012041B3C02D56442012000E00020DFF83E
:1010D00090A080460027FA44AAF1BE0A0DE0E0077E
:1010E00009D03246684607EB47010AEB810100F060
:1010F000C7FA8DE8070064107F1C002CEFD1184F51
:101100007F44AC3F18E0E80714D007EB04100DF162
:10111000180A90E80E008AE80E00C068F04201D17B
:1011200098190890324606A903A800F0A9FA03AB63
:1011300083E807006D10641C002DE4D13246694637
:10114000B8F1000F03A802D000F086FA01E000F029
:1011500097FAC9E90001C9F808200AB0BDE8F0878C
:10116000E02F000010B50446AFF300802046BDE834
:101170001040FFF79AB85FEA400C08BF91F0000FEB
:101180004FEA8C234FEAC12243EA51514FEA1C50E7
:1011900018BF00F5F0404FEA300018BF41F00041A1
:1011A0005FEA6C5C00F02980BCF1FF3F08BF40F0B3
:1011B00080407047130C06BF12044FF0100C4FF024
:1011C000000C130E04BF12020CF1080C130F04BF25
:1011D00012010CF1040C930F04BF92000CF1020CED
:1011E000D30F04BF52000CF1010C11464FF0000266
:1011F000A0F11F00A0EB0C00704711F0004F08BFDA
:10120000704731F000413FF4D5AF0B0C06BF090425
:101210004FF0100C4FF0000C0B0E04BF09020CF144
:10122000080C0B0F04BF09010CF1040C8B0F04BF59
:1012300089000CF1020CCB0F04BF49000CF1010C2A
:10124000CCF12003A0EB0C0022FA03F302FA0CF21B
:1012500041EA030100F10100704720F07F4C80EA71
:10126000030023F07F47ACEB070303F57C5300F04A
:10127000004003F1FF032DE980494FEA154B09B403
:101280004FEA144325EA0B4E24EA03480FF20426E2
:1012900006EB132749083E785FEA320203FB066734
:1012A000C7F5000707FB06F64FEA54374FEAD64664
:1012B00006F1020607FB066CCCF1005C4FEA1C4706
:1012C0002CEA074C07FB06F40CFB06F504EB15466D
:1012D0004FEA961634BF00204FF000404FEAD13756
:1012E00006FB07FC4FEA1C4C0CFB0BF7D21B03FB65
:1012F0000CF761EB07010CFB0EF7B0EB074072EB4C
:1013000017420CFB08F734BFA2EB0742B2EB0742CF
:1013100061EB17414FEA0C444FEA910706FB07FCCB
:101320004FEA1C4C0CFB0BF7B0EBC74072EB57328B
:1013300003FB0CF734BFA2EBC742B2EBC74261EB31
:1013400057310CFB0EF7B0EBC70072EB57720CFB7A
:1013500008F734BFA2EBC702B2EBC70261EB5771CB
:10136000039F4FEA816141EA921104EBCC044FEAFA
:10137000D1374FEA826206FB07FC42EA90124FEA3D
:1013800080604FEA1C4C0CFB0BF7D21B03FB0CF7E5
:1013900061EB07010CFB0EF7B0EB074072EB174255
:1013A0000CFB08F734BFA2EB0742B2EB074261EB3C
:1013B00017414FEA8C554FEA910704EB9C2406FB3A
:1013C00007FC4FEA1C4C0CFB0BF7B0EBC74072EB71
:1013D000573203FB0CF734BFA2EBC742B2EBC74254
:1013E00061EB57310CFB0EF7B0EBC70072EB577295
:1013F0000CFB08F734BFA2EBC702B2EBC70261EBEC
:10140000577115EB4C254FEA816141EA92114FEA81
:1014100082624FEAD13742EA901206FB07FC44F1A0
:1014200000044FEA80604FEA1C4C0CFB0BF7D21B08
:1014300003FB0CF761EB07010CFB0EF7B0EB074069
:1014400072EB17420CFB08F734BFA2EB0742B2EB7A
:10145000074261EB174115EB1C154FEA813141EA58
:1014600092414FEA823242EA90424FEA80304FEA9C
:101470000C7644F1000448EA03434EEA0B484FF06F
:10148000000EB2EB080C71EB030724BF624639462D
:101490004EEB0E0E4FF0000B0018524149414BEB42
:1014A0000B0BB2EB080C71EB03077BF1000B24BFB5
:1014B000624639464EEB0E0E4FF0000B00185241BB
:1014C00049414BEB0B0BB2EB080C71EB03077BF1C3
:1014D000000B24BF624639464EEB0E0E51EA02075E
:1014E00018BF46F0010616EB0E7655F1000254F1D6
:1014F000000103D5BDE88901BDE80088BDE8890188
:10150000BDE80048B619524141EB0101A3F10103C6
:10151000704780807F7E7D7C7B7A79787776767560
:101520007473727171706F6E6E6D6C6C6B6A6A69D8
:101530006868676666656464636362616160605F72
:101540005F5E5E5D5D5C5C5B5B5A5A5959585857EB
:101550005756565555555454535352525251515053
:1015600050504F4F4F4E4E4D4D4D4C4C4C4B4B4BA6
:101570004A4A4A49494948484847474747464646EC
:101580004545454444444443434343424242424127
:101590004141002B26D4770021D01CB54FEA3707F4
:1015A00003B44FF010004FF010014FF000000FBCDB
:1015B000BDE810400BF1010BBBF1010F08BF5FEA62
:1015C000170722BF12F1010211F101014FF0004192
:1015D00043F1000300F0004043EA00007047F9D3F4
:1015E0005708DAE746EA064613F1400F4FEA164677
:1015F0001FDD13F1200FDFBF16430A460021203301
:101600005B42C8D0C3F1200746EA064602FA07F754
:101610004FEA164646EA0706C3F1200722FA03F20C
:1016200001FA07F721FA03F14FF0000342EA07023B
:10163000B1E746EA020646EA06464FEA164646EA99
:101640000106BCBF46EA0646360C4FF000034FF0D9
:1016500000024FF000019EE72DE9C048934630B4E8
:1016600091E8380007C831EA400C48BF34EA430C1F
:1016700003D5FFF7F2FDFFF78CFFF0BCBDE8008853
:101680002DE9C048934630B491E8380007C810F0FF
:10169000804F08BF13F0804F03D100F005F8FFF72B
:1016A00078FFF0BCBDE8008820F07F4780EA0300A7
:1016B00023F07F4C07EB0C03A3F57C5300F00040B4
:1016C000A3F1FE0392F0000F00F0B38095F0000F3D
:1016D00000F077802DE901494FEA11404FEA1446A6
:1016E00021EA004800FB06FC24EA064708FB06F650
:1016F00007FB08F800FB07F718EB06484CEB164C05
:101700004FEA124B18EB07484FEA15464CEB1740CF
:1017100022EA0B4E0BFB06FC25EA06470EFB06F6FB
:1017200007FB0EFE0BFB07F71EEB064E4CEB164CB1
:101730004FF000061EEB074E4CEB174B18EB0B0857
:1017400040F1000018EB0E0B58EB000840F10000D0
:101750008F1A4FF000013CBFC943661B14BFB5EBA5
:10176000040C00213CBFC943F61B4FEA17444EEA64
:101770008E0E27EA04454FEA1C4704FB07622CEA59
:10178000074C05FB07F70CFB05F604FB0CFC16EBFE
:10179000074642EB174216EB0C4642EB1C421BEB92
:1017A000060658EB0202414146EA9E0601D5BDE815
:1017B0000189B619524141EB0101A3F10103BDE8D2
:1017C00001894FEA14454FEA114724EA054621EA08
:1017D000074C05FB07F406FB07F70CFB06F105FBBE
:1017E0000CFC11EB074144EB17444FEA124711EB95
:1017F0000C4144EB1C4422EA074C05FB07F206FBB4
:1018000007F70CFB06F605FB0CFC16EB074642EB54
:10181000174216EB0C4642EB1C456A1854F10001C6
:1018200048BF7047B619524141EB0101A3F10103D2
:10183000704795F0000F37D04FEA11424FEA144736
:1018400021EA024624EA074C02FB07F106FB07F7F0
:101850000CFB06F402FB0CFC14EB074441EB1741B4
:101860004FEA154714EB0C4441EB1C4125EA074CA9
:1018700002FB07F506FB07F70CFB06F602FB0CFC68
:1018800016EB074645EB174516EB0C4645EB1C429D
:10189000121951F1000148BF7047B619524141EB8E
:1018A0000101A3F1010370474FEA14454FEA1147C4
:1018B00024EA054621EA074C05FB07F106FB07F77A
:1018C0000CFB06F24FF0000605FB0CFC12EB074286
:1018D00041EB174112EB0C4251EB1C4148BF7047E2
:1018E000921841EB0101A3F10103704730B50346A3
:1018F0000C46002107E0585C655CA84200D101E07D
:10190000012030BD491C9142F5DB0020F9E70000C1
:101910001748806940F008001549886108468069C9
:1019200040F0100088611348006820F07060114991
:1019300008600846006840F0407008600E48006883
:101940000E4908400C490860084600680C490843E5
:101950000949086008480830006840F400600649FA
:10196000083108600846006840F40050086070477D
:101970000010024000100140040C0140FF000FFF66
:101980000038300070B50546002404E0295D03A04E
:1019900000F028FF641C0F2CF8DB70BD25630000ED
:1019A00000B5002015490861C86014204861002076
:1019B0008861C8610846006840F001000860084678
:1019C00040680F4908400D494860084600680D49C5
:1019D00008400A4908600846006820F48020086032
:1019E0000846406820F4FE0048600020886000211E
:1019F0004FF0006000F058F800BD000000100240F9
:101A00000000FFF8FFFFF6FE2DE9F041074688468B
:101A100014461D46284600F033F8C5F1040007FAC5
:101A200000F60F20284100EA0800064306F00F06E2
:101A3000E21704EBD2625211920002F1E022D2F8D6
:101A400000212146E31704EBD3635B11A4EB431C95
:101A5000012303FA0CF31A432046E31704EBD36384
:101A60005B119B0003F1E023C3F800210348005DF4
:101A700040EA061001490855BDE8F08100E400E0A5
:101A80000146072323EA01021202054B18684FF6AC
:101A9000FF031840034B18431043014B1860704775
:101AA0000CED00E00000FA05024A0A400243024B36
:101AB0001A60704780FFFF1F08ED00E030B5044654
:101AC0000025FFF76DFF1F48006840F480301D4976
:101AD000086000BF1B480068400C0028FAD04FF493
:101AE000806018494860A01EC4B20846406840EAB9
:101AF000844048600846406840F48030486012489E
:101B0000006840F03200104908600E48006840F05C
:101B100080700C49086000BF0A480068400E002829
:101B2000FAD00848406840F002000649486005E0E5
:101B300004484068C0F3870505F00305022DF7D17E
:101B400030BD0000001002400020024010B50246E7
:101B50000B46002107E0505C5C5CA04200D101E034
:101B6000012010BD491C0329F5DB0020F9E72DE910
:101B7000F04107460E463046FEF786FD80460024BB
:101B800012E0002507E0385D715D884201D1641CD8
:101B900000E002E06D1C4545F5DB00BF454502D184
:101BA000A01FBDE8F081641CB4F5806FE9DB002064
:101BB000F7E7000010B54FF08040008A00F0010008
:101BC00048B109490869804700204FF08041888466
:101BD0004FF47A7088854FF08040008A20F0010031
:101BE0004FF08041088210BD5800002000B50A481F
:101BF000008800F0010070B10848008840F40040FF
:101C0000064908800448008820F001000249088045
:101C1000002000F02DF800BD10040040140000204A
:101C200070B505460C461048C06940F002000E49E8
:101C3000C8610E480580001F04800C4820380088C9
:101C400040F0010009492039088008482C380088F4
:101C500040F0010005492C39088002231D22194655
:101C60000120FFF7D1FE70BD001002402C0400409F
:101C700058B10021094A118008492439098841F0E6
:101C80000101064A243A118007E0044924390988F1
:101C900021F00101014A243A1180704724040040D8
:101CA00000B50A48008800F0010070B108480088BB
:101CB00040F40040064908800448008820F00100F4
:101CC00002490880002000F02DF800BD10080040F7
:101CD0001800002070B505460C461048C06940F059
:101CE00004000E49C8610E480580001F04800C489E
:101CF0002038008840F00100094920390880084850
:101D00002C38008840F0010005492C390880022356
:101D10001E2203210120FFF777FE70BD0010024054
:101D20002C08004058B10021094A11800849243983
:101D3000098841F00101064A243A118007E004496C
:101D40002439098821F00101014A243A11807047A1
:101D50002408004070B505460C460D48C06940F0A7
:101D600001000B49C861880485850485808940F09D
:101D70000100890488810846008840F0010008803D
:101D800002231C2203210846FFF73EFE70BD00001F
:101D90000010024000B51348008800F0200000B396
:101DA0001048001D0088C3B20F48008800F40040AE
:101DB00088B900200D4908800B48008810B901201F
:101DC000FFF756FF084801880088401C064A10802B
:101DD0000748435405E00448008840F400400249A5
:101DE000088000BD00380140140000202404004099
:101DF0001806002000B51348008800F0200000B34A
:101E00001048001D0088C3B20F48008800F400404D
:101E100088B900200D4908800B48008810B90120BE
:101E2000FFF780FF084801880088401C064A1080A0
:101E30000748435405E00448008840F40040024944
:101E4000088000BD00440040180000202408004025
:101E5000180E002070B505460C462348806940F0F6
:101E60000400214988612148006820F47F401F490F
:101E700008600846006840F40B4008601A48C069D2
:101E800040F400301849C8610846006940F4003049
:101E900008610846006920F400300861144868436E
:101EA000B0FBF4F013490880081D008842F20C01D1
:101EB00008431049091D08800846008840F02000AA
:101EC00008800223262203211846FFF79DFD41F6D4
:101ED0001F4140F2E730FFF7FDFE00200649088071
:101EE000FFF720FF70BD0000001002400008014015
:101EF00040420F000844004018000020490050EA0A
:101F0000C12018BF04204A0D18BF40F0010040F264
:101F1000FF72B2EB515F08BF40F00200012808BF1A
:101F20000520704730380A2801D201207047002070
:101F30007047014600BF704770B504460025094848
:101F4000008800F4004058B1002006490988C1F318
:101F50000E01054A505421461046FEF783FB054604
:101F6000284670BD18000020180E002010B500BFD4
:101F70001748008800F040000028F9D02B201449B1
:101F8000091D08800F2000F0D5F800BF1048008818
:101F900000F040000028F9D02B200D49091D0880D1
:101FA0000F2000F0C7F800BF0948008800F040008B
:101FB0000028F9D02B200649091D08804FF4FA703B
:101FC00000F0B8F8142203A103A000F007F810BD38
:101FD000004400404F4B0000415400002DE9F04107
:101FE00006460D4614464FF000080027002014490D
:101FF0000880314613A000F0F5FBF5B1ECB114E018
:102000000A2000F097F80E48008800F4004060B104
:102010002846FFF791FF074627B139460BA000F08D
:10202000B9FB06E0002006490880601E80B2041E4D
:10203000E6D100BF0CB94FF001084046BDE8F08181
:102040001800002025730D0A0000000061636B3A40
:1020500025730D0A0000000070B5044600250948EC
:10206000008800F4004058B1002006490988C1F3F7
:102070000E01054A505421461046FEF7F3FA054674
:10208000284670BD18000020180E00202DE9F041F0
:1020900006460D46144600270020124908803146A6
:1020A00011A000F09FFBD5B1CCB112E00A2000F0E6
:1020B00041F80C48008800F4004050B12846FFF772
:1020C000CBFF804641460AA000F064FB0020054992
:1020D0000880601E80B2041EE8D104B90127404682
:1020E000BDE8F0811800002025730D0A00000000F3
:1020F000257300004FF0E021096921F004014FF041
:10210000E0221161C21700EB5272C2F3C702074B03
:102110001A701946097801EB4102C2EBC1114FF662
:10212000FF7202EAC101024A118070470C000020D0
:102130000E00002001460D4A12884A434FF0E0236A
:102140005A6100229A6101221A6100BF4FF0E02219
:10215000106900F001021AB100F48032002AF5D0B3
:1021600000224FF0E0231A619A6170470E000020B0
:1021700070B50446002504E04FF47A70FFF7DAFFEB
:102180006D1CA542F8DB70BD7FB505460E460024E8
:1021900003E0285D0DF80400641C062CF9DB002424
:1021A00003E0285D03A90855641C032CF9DB7F4874
:1021B0000068B8B97EA16846FFF7C8FC90B97EA058
:1021C00000F010FB3046FFF7DDFB7DA000F00AFBBE
:1021D0003046FFF7D7FB7BA000F004FB81A000F0A6
:1021E00001FBE1E082480068D0B982A16846FFF7B0
:1021F000ADFCA8B901207E4908606FA000F0F2FA9A
:102200003046FFF7BFFB6EA000F0ECFA3046FFF758
:10221000B9FB6CA000F0E6FA72A000F0E3FAC3E0AC
:1022200076A16846FFF792FC00283DD15F48006820
:10223000C8B15E4800680F2815D101205B490860CD
:102240005DA000F0CFFA3046FFF79CFB5CA000F0E9
:10225000C9FA3046FFF796FB6AA000F0C3FA61A006
:1022600000F0C0FAA0E051480068B8B94F480068D3
:10227000401C4E49086050A000F0B4FA3046FFF709
:1022800081FB4FA000F0AEFA3046FFF77BFB5DA06C
:1022900000F0A8FA53A000F0A5FA85E043480068D2
:1022A000401C424908607FE040480068E0B15CA102
:1022B0006846FFF74BFCB8B900203C4908604C4920
:1022C00008603DA000F08EFA3046FFF75BFB3CA0B3
:1022D00000F088FA3046FFF755FB53A000F082FA71
:1022E00040A000F07FFA5FE056A103A8FFF72EFCA4
:1022F000002859D1052254A16846FFF7F7FA0028B3
:1023000052D03B480068012823D039480068102883
:102310001FD102203649086027A000F063FA30463A
:10232000FFF730FB26A000F05DFA3046FFF72AFBEE
:1023300047A000F057FA032405E01DF804104BA055
:1023400000F050FA641C052CF7DB26A000F04AFAD6
:102350002AE027480068012821D125480068401C50
:102360002349086014A000F03DFA3046FFF70AFB4D
:1023700013A000F037FA3046FFF704FB34A000F05A
:1023800031FA032405E01DF8041038A000F02AFA01
:10239000641C052CF7DB13A000F024FA04E01448B9
:1023A0000068401C124908607FBD0000000000204A
:1023B0007E303130304000007463703A2F2F0000BF
:1023C0002F7E000023313036303837363830302316
:1023D0003023303030303030237374617274757054
:1023E000000000002468617368636F64650000008A
:1023F000040000207E313230304000007E31313028
:102400003040000023313036303837363830302312
:1024100030233030303030302369646C6500000088
:102420007E3133303040000023313036303837369B
:1024300038303023302330303030303023656E6414
:10244000656400007E3132007E31323030000000A1
:10245000233130363038373638303023302330307F
:102460003030303023776F726B230000256300001B
:1024700001460848008800F4004048B10020054AA1
:102480001288C2F30E02044B985409B1014A10801D
:1024900001487047140000201806002000BF054ABC
:1024A000128802F04002002AF9D0C2B2014B1B1D73
:1024B0001A8070470038014088B000BF00BF00BFDD
:1024C0001AA103C9CDE901010920FFF7F7FA482055
:1024D000FFF710FE4FF49641482000F0ABF94FF49F
:1024E000E1312420FFF7B6FCFFF712FA03A800F051
:1024F00093F81AE00120FFF7BBFF05460DA1204627
:10250000FFF735FB58B90120FFF732FE03A9284633
:10251000FFF73AFE012000F015F8044605E00A2016
:10252000FFF726FE03A800F077F8E3E701020304B3
:1025300005000000434C4F53454400000146086825
:10254000704700002DE9F047064600250027A84601
:10255000A9462648008800F40040002842D0002008
:1025600022490988C1F30E01214A5054144621A181
:102570002046FFF7FCFA054620A12046FFF7F7FAB0
:1025800007461FA12046FFF7F2FA8146A7EB050890
:10259000B9F1000F22D10DB3B8F1040F10D11AA078
:1025A00000F0F8F86019C17918A000F0F3F860198C
:1025B000017A16A000F0EEF815A000F0EBF80DE09F
:1025C00011A000F0E7F813A000F0E4F86019C17959
:1025D0000EA000F0DFF80EA000F0DCF816B100202D
:1025E000024908802046BDE8F0870000180000205E
:1025F000180E00207374617274757000240000005E
:10260000434C4F53454400007E36300025630000A4
:10261000400000003000000070B5054600BFC82231
:102620002EA12FA0FFF732FD06460120FFF7A0FDE7
:102630002EA13046FFF79BFA0028F0D0C82227A130
:102640002CA0FFF723FDC82224A12DA0FFF71EFD1B
:10265000C82222A12DA0FFF719FDC8221FA12FA07B
:10266000FFF714FDC8221DA130A0FFF70FFDC822FF
:102670001AA131A0FFF70AFDC82218A131A0FFF767
:1026800005FD0646002404E006F10A00005D285519
:10269000641C0F2CF8DB00BFC82210A12BA0FFF791
:1026A000F5FC06460120FFF763FD33A13046FFF736
:1026B0005EFA0028F0D132A000F094F8002404E083
:1026C000295D31A000F08EF8641C0F2CF8DB2FA0E0
:1026D00000F088F86420FFF72DFD70BD00000000B9
:1026E00041542B434F50533F000000004348494E94
:1026F0004100000041542B434950434C4F53450087
:1027000041542B43495053485554000041542B43E6
:1027100049504D4F44453D310000000041542B438A
:102720005354543D22434D494F54220041542B43AE
:10273000494943520000000041542B43494653523B
:102740000000000041542B47534E000041542B43DE
:10275000495053544152543D22544350222C22316B
:1027600030362E31352E33332E313232222C223870
:1027700034333722000000004641494C000000007D
:102780007463703A2F2F0000256300002F7E686568
:102790006C6C6F000FB438B505A800900F48009A14
:1027A0000499FDF7A7FD002000900C48FDF76CFF91
:1027B00085B200240DE000BF0948008800F0400009
:1027C0000028F9D00548005D0549091D0880601CF6
:1027D00084B2AC42EFDB38BC5DF814FB1802002079
:1027E000003801400FB438B505A800900F48009A92
:1027F0000499FDF77FFD002000900C48FDF744FF91
:1028000085B200240DE000BF0948008800F04000B8
:102810000028F9D00548005D0549091D0880601CA5
:1028200084B2AC42EFDB38BC5DF814FB180A002020
:10283000004400402DE9F05F05460E46300101F0EE
:102840005BFA8146334905FB01F001F055FA8246F7
:10285000494601F06FF90746384601F02DFA84B277
:10286000204601F049FA8346394601F025FB8246AD
:102870004FF0834101F054FA814601F01DFA804681
:102880004FF6FF7000EA041404EB080084B22248FB
:10289000806940F00400204988610846806940F45E
:1028A000804088611D48006820F47F601B490860F3
:1028B0000846006840F40B6008601748C06840F4A0
:1028C00080401549C8600846C06820F48040C86050
:1028D00013480480001D008842F20C01084310498F
:1028E000091D08800846008840F020000880022367
:1028F000252203210846FFF787F841F61F4140F2E1
:10290000E730FFF78DF9002006490880FFF7B0F99E
:10291000BDE8F09F40420F00001002400408014053
:10292000083801401400002030B595B0054613ABBF
:1029300012AA09A9284600F03BFA044614B1204621
:1029400015B030BD0020149026E0224909689DF89A
:10295000502001EBC20113AB11AA486801A900F095
:1029600027FA04460CB12046EAE709A901A800F0BD
:10297000B7FC60B99DF844009DF84810884201DD1D
:102980000220DDE79DF85000124988750AE09DF8A5
:102990005000401CC0B214900E48007D9DF85010AD
:1029A0008842D2DC00BF0B48007D9DF85010884261
:1029B00001D10420C4E714A9284600F0D9FA04463E
:1029C0000CB12046BCE79DF8500002494875002034
:1029D000B6E70000580000202DE9F0419AB000262B
:1029E0009C48847D007DA04202DC1AB0BDE8F081E5
:1029F0009849096801EBC40106AB07AA486808A911
:102A000000F0D6F908A994A0FDF786FC002544E063
:102A10009048008B0121A9400840D8B1222190A004
:102A2000FDF77AFC284600F029FB8A492431471833
:102A300039468CA0FDF770FC222189A0FDF76CFCC3
:102A4000284600F01BFB83492431084410A941F8B3
:102A5000250018E0284600F011FB7E492431085873
:102A600010A941F825007B48C07D30B910A850F866
:102A700025107DA0FDF750FC05E010A850F82510AA
:102A80007AA0FDF749FC9DF81C00401EA84202D028
:102A900078A0FDF741FC681CC5B29DF81C0085427A
:102AA000B6DB75A0FDF738FC00F038FB6948407DC7
:102AB0000B280DD2DFE800F0060D151E27323F4E21
:102AC0005F7287006349096851F834008047064601
:102AD00090E0604A126852F8341010988847064611
:102AE00088E05C4B1B6853F83420DDE91001904707
:102AF00006467FE0574F3F6857F8343010A807C8A4
:102B00009847064676E0DFF84CC1DCF800C05CF878
:102B1000347010A80FC8B84706466BE01498DFF869
:102B200034C10090DCF800C05CF8347010A80FC805
:102B3000B84706465EE0DDE91401DFF818C1CDE9CB
:102B40000001DCF800C05CF8347010A80FC8B8476A
:102B500006464FE0DDE914121698DFF8F8C0CDE91B
:102B600000120290DCF800C05CF8347010A80FC8A6
:102B7000B84706463EE0DDE91423DDE91610DFF82C
:102B8000D4C0CDE90023CDE90210DCF800C05CF828
:102B9000347010A80FC8B84706462BE0DDE916329E
:102BA00018991598CDE90232049101901498DFF834
:102BB000A4C00090DCF800C05CF8347010A80FC806
:102BC000B847064616E0DDE91623DDE91810CDE921
:102BD0000223CDE90410DDE91401DFF878C0CDE966
:102BE0000001DCF800C05CF8347010A80FC8B847CA
:102BF000064600BF00BF00F051FA9DF818000128FA
:102C00000CD11448C07D20B931461CA0FDF784FBCF
:102C100007E031461BA0FDF77FFB02E018A0FDF79F
:102C20007BFB0C4890F8EC0088B10A48D0F8F00023
:102C30000A21B0FBF1F201FB12070648D0F8F000C0
:102C4000B0FBF1F83A46414611A0FDF765FB00BF25
:102C5000CBE60000580000200D0A25732800000074
:102C60002563000025730000256C75003058255839
:102C7000000000002C000000290000003D256C75BC
:102C80003B0D0A003D305825583B0D0A000000005E
:102C900046756E6374696F6E2052756E2054696D4F
:102CA000653A25642E2531646D730D0A000000001D
:102CB000F0B503461546002000220026002455E00A
:102CC0001F782C2F01D104B901221F78292F01D0A0
:102CD0001F780FB904B94AE0002E34D11F78302F85
:102CE00002DB1F78392F11DD1F78612F02DB1F787F
:102CF000662F0BDD1F78412F02DB1F78462F05DD85
:102D00001F78582F02D01F78782F0CD102B12EE0F7
:102D10001F78612F03DB1F78203F0F7001E01F78C1
:102D20000F70491C1FE01F78222F04D102B11EE052
:102D30000126012417E01F78202F14D01F782C2F94
:102D400011D0FF2613E01F78222F00D1002402B1FA
:102D50000DE044B11F785C2F02D15B1C471CF8B218
:102D60001F780F70491C471CF8B25B1CA8E700BF16
:102D700000270F702E70F0BD10B5044600201070B3
:102D80000BE020780870641C491C1078401C1070FF
:102D90001078984201DB012010BD2078202802D055
:102DA00020780028EDD10020087000BFF4E7000073
:102DB0002DE9FF4F85B0804689460027002004900A
:102DC0000390012002904FF0000B002544461DE0C7
:102DD0002078202816D005F07F00052812DA0DB9DA
:102DE00045F0800505F07F00042803D120782A28CB
:102DF00000D00EE0207805F07F010DF80100681C7E
:102E0000C5B202E0852D00D103E0641C20780028C3
:102E1000DED100BF8DB1002005F07F010DF801006B
:102E200051A1684600F05CFA18B9002108980170B9
:102E300002E001210898017000254FF0000A444685
:102E400014E0641C0AF1010000F0FF0A2078202839
:102E500002D020782A2809D1204600F0D1F9064670
:102E6000282E03D02A2E01D0CDF810A020782828B3
:102E700002D020780028E4D14446049810B1049888
:102E8000401C04444FF0000A002654E0207810B99A
:102E90004FF0010A50E02078282803D116B9781C99
:102EA000C7B213E02078292808D13EB917B1781E9F
:102EB000C7B201E04FF0010A47B93DE0207822286F
:102EC00004D10EB9012000E00020064647B9207861
:102ED00020282FD0207889F8000009F1010929E085
:102EE00020782C2804D101200290681CC5B214E07F
:102EF0002078202811D0207828280ED04DB9BBF199
:102F0000050F06DA20780DF80B000BF1010000F038
:102F1000FF0B0298401CC0B20290012F0AD1029808
:102F2000022807D10298401CC0B202900398401CAE
:102F3000C0B20390641CA9E700BF0398012809D11F
:102F400000200DF80B0008A1684600F0C9F908B987
:102F500000200390079903980870002089F800006A
:102F6000504609B0BDE8F08F766F6964000000003C
:102F70002DE9F043B5B005460F460024002604E0D5
:102F800000213D488155701CC6B20A2EF8DB06E0D0
:102F90006D1C287818B9012035B0BDE8F083287879
:102FA0002828F5D16D1C61E034AA69462846FFF750
:102FB0007FFE064635449DF8D00020B1012827D079
:102FC000FF284CD149E09DF8000000B333A96846C2
:102FD00000F021F906460EB10220DDE7204600F0A0
:102FE0004DF825490A31339A0A50A1F12400008B8B
:102FF0000121A140884320491A39088304211E4831
:103000000155601CC4B20A2C01DD0320C4E726E090
:10301000684600F081F9401C00F0FF08204600F0EF
:103020002DF815490A3100EB01094946684600F0C0
:1030300068F911481A38018B0120A040014388B279
:103040000D491A3908830C4800F80480601CC4B28A
:103050000A2C01DD03209FE701E002209CE700BF6E
:103060002878292801D0287800B900E09CE700BF23
:103070003C70002090E70000720000200246002013
:10308000002105E0044B5B5C0344D8B24B1CD9B271
:103090009142F7DB70470000720000204FF0804043
:1030A000008A00F0010040B10B48D0F8F0004FF664
:1030B000FF7108440849C1F8F0000748D0F8F00053
:1030C0004FF08041898C08440349C1F8F00008465C
:1030D000D0F8F000704700005800002010B50446FA
:1030E00004EBC40000EB04100122C2EB800081B2AB
:1030F0004FF47A70FEF72EFE01200149C87510BD0D
:103100005800002010B50246012000E050430B1E7D
:10311000A1F10104E1B2F9D110BD00004FF08040EF
:10312000008A20F001004FF0804108824FF6FF70C6
:103130008885002088840249C1F8F00070470000AB
:103140005800002070B51D48008800F40040002899
:1031500033D01A4805780020194948551948816824
:103160001748884704461CB91649C868804721E0BB
:10317000134800F0DDF80546012D00D02C46CCB1F7
:10318000012C06D0022C08D0032C0AD0042C10D11C
:103190000BE00DA0FDF7C0F80BE00EA0FDF7BCF8AA
:1031A00007E00FA0FDF7B8F803E010A0FDF7B4F8B2
:1031B00000BF00BF00200149088070BD140000203E
:1031C0005001002058000020BAAFCAFDB4EDCEF384
:1031D000210D0A00B2CECAFDB4EDCEF3210D0A00D6
:1031E000B2CECAFDCCABB6E0210D0A00CEB4D5D22A
:1031F000B5BDC6A5C5E4B5C4BAAFCAFD210D0A0068
:103200000146491C00E0491C0878202801D100290A
:10321000F9D1087870472DE9F04307460E4600259E
:103220004FF00A083C46002030601FE02078392823
:1032300002DC207830280ADA2078462802DC207860
:10324000412804DA2078582809D1012D07D12078A7
:10325000412801DB4FF01008681CC5B205E020785A
:1032600000B904E00120BDE8F083641CDEE700BF84
:103270003C46B8F1100F0FD1032D01DA0220F2E71E
:103280002078302806D16078582803D1A41CA81EC5
:10329000C5B204E00320E6E70DB90420E3E71BE034
:1032A0000DB1681EC5B22078392806DC2078302898
:1032B00003DB2078A0F1300902E02078A0F1370983
:1032C00029464046FFF71EFF316809FB00103060B9
:1032D000641C207800B900E0E2E700BF0020C2E7EC
:1032E00002460AE010780B78984201D0012070471E
:1032F000107800B902E0521C491CF3E700BF00201F
:10330000F5E706E002780A70027802B902E0401C94
:10331000491CF7E700BF70470146002005E00A7826
:1033200002B903E0421CD0B2491CF8E700BF704765
:1033300010B58CB004461E230BAA03A92046FFF744
:103340001BFD0090009810B101200CB010BD9DF83D
:103350002C00044400200B900EE040489DF82C20E7
:1033600050F8221003A8FFF7BBFF00B908E09DF852
:103370002C00401CC0B20B909DF82C000728ECD309
:1033800000BF9DF82C00072863D2DFE800F0040599
:103390003C5E6564630000BF31A0FCF7BDFF31A057
:1033A000FCF7BAFF3FA0FCF7B7FF4EA0FCF7B4FF55
:1033B0005CA0FCF7B1FF6BA0FCF7AEFF79A0FCF7B7
:1033C000ABFF86A0FCF7A8FF8BA0FCF7A5FF90A0A1
:1033D000FCF7A2FF94A0FCF79FFF99A0FCF79CFFCD
:1033E0009EA0FCF799FFA4A0FCF796FFB0A0FCF705
:1033F00093FFBDA0FCF790FFC8A0FCF78DFFD4A001
:10340000FCF78AFF9AE216A0FCF786FFE0A0FCF723
:1034100083FF00200B900EE0ED4800689DF82C2003
:1034200000EBC2004168EBA0FCF776FF9DF82C0092
:10343000401CC0B20B90E648007D9DF82C108842DD
:10344000EADC07A0FCF768FF78E205A0FCF764FF60
:10345000C4E171E245E219E2ECE100001C00002049
:103460000D0A00002D2D2D2D2D2D2D2D2D2D2D2D29
:103470002D2D2D2D2D2D2D2D2D2D2D2D55534D41FA
:1034800052542056332E312D2D2D2D2D2D2D2D2DF9
:103490002D2D2D2D2D2D2D2D2D2D2D2D2D2D2D2069
:1034A0000D0A00002020202055534D415254CAC718
:1034B000D3C9414C49454E54454BBFAAB7A2B5C4E8
:1034C000D2BBB8F6C1E9C7C9B5C4B4AEBFDAB5F767
:1034D000CAD4BBA5BDBBD7E9BCFE2CCDA8B9FD2085
:1034E0000D0A0000CBFC2CC4E3BFC9D2D4CDA8B9CF
:1034F000FDB4AEBFDAD6FACAD6B5F7D3C3B3CCD0D3
:10350000F2C0EFC3E6B5C4C8CEBACEBAAFCAFD2C7E
:10351000B2A2D6B4D0D02ED2F2B4CB2CC4E3BFC961
:103520000D0A0000D2D4CBE6D2E2B8FCB8C4BAAFE0
:10353000CAFDB5C4CAE4C8EBB2CECAFD28D6A7B34B
:10354000D6CAFDD7D62831302F3136BDF8D6C62998
:10355000A1A2D7D6B7FBB4AEA1A2BAAFCAFDC8EB41
:103560000D0A0000BFDAB5D8D6B7B5C8D7F7CEAACE
:10357000B2CECAFD292CB5A5B8F6BAAFCAFDD7EEB2
:10358000B6E0D6A7B3D63130B8F6CAE4C8EBB2CEAF
:10359000CAFD2CB2A2D6A7B3D6BAAFCAFDB7B52022
:1035A0000D0A0000BBD8D6B5CFD4CABE2ED0C2D427
:1035B000F6B2CECAFDCFD4CABEBDF8D6C6C9E8D6CB
:1035C000C3B9A6C4DC2CD0C2D4F6BDF8D6C6D7AADF
:1035D000BBBBB9A6C4DC2E0D0A000000BCBCCAF5FA
:1035E000D6A7B3D63A7777772E6F70656E65647617
:1035F0002E636F6D0D0A000055534D415254D3D0C8
:1036000037B8F6CFB5CDB3C3FCC1EE3A0D0A000012
:103610003F3A202020202020BBF1C8A1B0EFD6FAED
:10362000D0C5CFA20D0A000068656C703A2020203A
:10363000BBF1C8A1B0EFD6FAD0C5CFA20D0A0000E9
:103640006C6973743A202020BFC9D3C3B5C4BAAF24
:10365000CAFDC1D0B1ED0D0A0A00000069643A202C
:1036600020202020BFC9D3C3BAAFCAFDB5C4494486
:10367000C1D0B1ED0D0A0A006865783A20202020FB
:10368000B2CECAFD3136BDF8D6C6CFD4CABE2CBA2A
:10369000F3B8FABFD5B8F12BCAFDD7D6BCB4D6B4AF
:1036A000D0D0BDF8D6C6D7AABBBB0D0A0A00000011
:1036B0006465633A20202020B2CECAFD3130BDF8C7
:1036C000D6C6CFD4CABE2CBAF3B8FABFD5B8F12B40
:1036D000CAFDD7D6BCB4D6B4D0D0BDF8D6C6D7AA0A
:1036E000BBBB0D0A0A00000072756E74696D653A05
:1036F000312CBFAAC6F4BAAFCAFDD4CBD0D0BCC659
:10370000CAB13B302CB9D8B1D5BAAFCAFDD4CBD0F1
:10371000D0BCC6CAB13B0D0A0A000000C7EBB0B46A
:10372000D5D5B3CCD0F2B1E0D0B4B8F1CABDCAE4BB
:10373000C8EBBAAFCAFDC3FBBCB0B2CECAFDB2A2E1
:10374000D2D4BBD8B3B5BCFCBDE1CAF82E0D0A007B
:103750002D2D2D2D2D2D2D2D2D2D2D2D2D2D2D2D99
:103760002D2D2D2D2D2D2D2D2D2D414C49454E54DA
:10377000454B2D2D2D2D2D2D2D2D2D2D2D2D2D2D43
:103780002D2D2D2D2D2D2D2D2D2D2D200D0A000013
:103790002D2D2D2D2D2D2D2D2D2D2D2D2D2D2D2D59
:1037A0002D2D2D2D2D2D2D2D2DBAAFCAFDC7E5B5F3
:1037B000A52D2D2D2D2D2D2D2D2D2D2D2D2D2D2DC1
:1037C0002D2D2D2D2D2D2D2D2D2D2D2D200D0A00A6
:1037D0005800002025730D0A0000000059A0FCF7D6
:1037E0009BFD00200B901AE0664909689DF82C208B
:1037F00001EBC20101AB02AA486803A9FFF7D8FA9E
:10380000604800689DF82C1050F8312003A95EA094
:10381000FCF782FD9DF82C00401CC0B20B9059486B
:10382000007D9DF82C108842DEDCAFF2CC30FCF736
:1038300073FD83E0AFF2D830FCF76EFD0BAA03A94D
:103840002046FFF735FA9DF82C00C8B9694603A851
:10385000FFF7E1FC0B909DF82C0020B94FA00099D8
:10386000FCF75AFD0EE09DF82C00042801D0022040
:103870006BE54DA0FCF750FD01204249C87501E001
:10388000022062E547A0FCF747FD57E045A0FCF7A2
:1038900043FD0BAA03A92046FFF70AFA9DF82C0066
:1038A000C8B9694603A8FFF7B6FC0B909DF82C0039
:1038B00020B942A00099FCF72FFD0EE09DF82C00E6
:1038C000042801D0022040E53FA0FCF725FD0020A0
:1038D0002C49C87501E0022037E532A0FCF71CFD39
:1038E0002CE030A0FCF718FD0BAA03A92046FFF737
:1038F000DFF99DF82C00C8B9694603A8FFF78BFCD7
:103900000B909DF82C0078B91E49009881F8EC00C6
:10391000084690F8EC0018B130A0FCF7FDFC07E079
:1039200035A0FCF7F9FC03E002200EE502200CE5CF
:103930001CA0FCF7F1FC01E0012006E500BF00201F
:1039400003E500002D2D2D2D2D2D2D2D2D2D2D2D73
:103950002D2D2D2D2D2D2D2D2D2D2D2D2DBAAFCAEB
:10396000FD204944202D2D2D2D2D2D2D2D2D2D2D9E
:103970002D2D2D2D2D2D2D2D2D2D2D2D2D2D2D2D77
:10398000200D0A0058000020257320696420697307
:103990003A0D0A3058253038580D0A004845583A33
:1039A000305825580D0A00003136BDF8D6C6B2CEC3
:1039B000CAFDCFD4CABE210D0A0000004445433AD7
:1039C000256C750D0A0000003130BDF8D6C6B2CEA8
:1039D000CAFDCFD4CABE210D0A00000052756E2068
:1039E00054696D652043616C63756C6174696F6EB9
:1039F000204F4E0D0A00000052756E2054696D650F
:103A00002043616C63756C6174696F6E204F46462C
:103A10000D0A00000160704710B500290AD008782F
:103A2000002807D005487844FCF74EFE002801D056
:103A3000002010BD0248784410BD0000420700007D
:103A40003A07000010B500290AD00878002807D0EE
:103A500005487844FCF738FE002801D0002010BD4E
:103A60000248784410BD0000320700002A07000019
:103A700090EA010F48BF81F0004100F12E82421A06
:103A80003CBF801A89184FEAD0524FF07F4C1CEA95
:103A9000410FA2EBD15318BF9CEA026F00F03B80AC
:103AA0004FF0004C4CEA00204CEA012121FA03FCC3
:103AB00010EB0C0C1ED202F1FF325FEA1C2040EB2F
:103AC000C25038BF70471CF07F0F4FEA400C18BF40
:103AD000BCF17F4F38BF7047C3F12003994008BF46
:103AE00020F00100BCF17F4F38BF7047A0F1C0400B
:103AF00000F0DDB94FEA3C00000A40EBC25028BF9D
:103B00001CF0FF0F4FEA400CE6D018BFBCF17F4F0E
:103B100038BF7047EAE79CEA026F05D010EA5C0FF5
:103B200008BF00F00040704710B500F07AF900BF00
:103B300064FBBE3E4FF47F0C1CEAD0121EBF1CEA91
:103B4000D11392EA0C0F93EA0C0F00F0858090EAF3
:103B5000010F48BF42F4807240F4000C41F40000B1
:103B60002CF07F4120F07F4000B58142A2EB0302A0
:103B70000FF2081CACEB504EC0F100009EF800E0C4
:103B80004FEA4E0E00FB0EFC38BF49004FEA2C1CDA
:103B900002F5FA020CFB0EF34FEACE1E4FEA112C8F
:103BA0004FEAC1210EEB635E42EB22420EFB0CFC9E
:103BB0004FEA1C5300FB03114FEA112C4FEA01316D
:103BC0000EFB0CFC4FEADC4C00FB0C11C14228BF81
:103BD00009184CEB03335DF804EB10EB410143EBA8
:103BE000C250B2F57C0F38BF704729D512F0F00FE4
:103BF0001CBF00F1C04000F000407047008182838C
:103C00008485868788898B8C8D8E8F9192939596EB
:103C100097999A9C9D9FA0A2A3A5A7A8AAACAEB075
:103C2000B2B3B5B7B9BCBEC0C2C5C7C9CCCED1D47A
:103C3000D7D9DCDFE2E6E9ECF0F3F7FAFE000000AA
:103C40004FEA400C0CF1807CBCF17E4F28BF7047DE
:103C5000B0F1C04000F02BB990EA010F0CEAD1138B
:103C600048BF42F48072624538BF634507D213F4FF
:103C70007F0F16D080EA010000F00040704710B5B9
:103C800000F0CFF8097EFC3E00F005B880EA0100A4
:103C900000F00040704780EA010000F0004000F0B2
:103CA00006B912F47F0F04BF0248704780EA010092
:103CB00000F0FDB80000C07FC10DD1F19E0206DB0F
:103CC0004FEA002343F0004323FA02F0704700421A
:103CD00007D54FEA4001B1F1FE4F02D24FF000008C
:103CE000704710B500F09DF849922480002070477D
:103CF0006FEA200070470000B0FA80F310FA03F278
:103D0000C3F19D030AD0D90501EB1220530638BF39
:103D1000704700F1010008BF20F00100704700006B
:103D20004FF47F0C1CEAD0121EBF1CEAD11392EA9A
:103D30000C0F93EA0C0F00F0478090EA010F48BF88
:103D400042F480724FF0004C4CEA00204CEA012112
:103D500002EB0302A0FB0113A2F50002002918BF29
:103D600043F001035B0028BF4FEA330342EB2242DA
:103D70005FEA132C4CEBC2502EBFBCEB436FB2F585
:103D80007C0F70474FEA036CBCF1004F08BF20F076
:103D90000100B2F57C0F38BF70470BD582F0FF02EF
:103DA00012F5803FC8BF704700F1C040D8BF00F097
:103DB0000040704700F5000C5FEA4C0C48BF7047AC
:103DC000B0F1C04000F073B890EA010F0CEAD113D3
:103DD00048BF42F48072624538BF634504D280EA2E
:103DE000010000F00040704710B500F01AF800BF65
:103DF0008900013E00F007B800F009B85FEA410C05
:103E00005FEA1C6C08D080EA010000F050B85FEA5D
:103E1000400C5FEA1C6CF6D14FF00040A0F580002A
:103E200070470EF1020E2EF0030E5EF8044B244292
:103E300004D44FEA4102B2F17F4F11D84FEA400358
:103E4000B3F17F4F0CD80ED14FEAD07CB2F17F4F47
:103E50000CEB4C0C0CF1020C08BF4CEBD17C04E0D9
:103E60004FF0080C01E04FEAD17C0CEB4C0324FA34
:103E700003F404F00704B4F1040C06D20EEB840C36
:103E8000BDE810404CF0010C6047DFE80CF007087B
:103E900002024FF00040A0F5800010BD084642002D
:103EA00018BFD2F1807288BF00F0004010BDFF2122
:103EB00041EAD050C005704780F0004090EA010F01
:103EC0007FF5DDAD81F0004100F007B890EA010F09
:103ED00048BF81F000413FF5D2AD421A04D882F0CC
:103EE0000042A0EB020011444FEAD0524FF07F4C49
:103EF0001CEA410FA2EBD15318BF9CEA026F4AD0D3
:103F00004FF0004C4CEA00204CEA012121FA03FC5E
:103F1000B0EB0C0C0FD412F0FE0F36D05FEA4C0061
:103F20001DD5001240EBC25038BF70471CF03F0F48
:103F300018BF70470BE0A2F101025FEA1C2040EBC2
:103F4000C25038BF70471CF07F0F18BF7047C3F1D5
:103F50002003994014BF401E20F0010070478008E4
:103F60004FEA122308BF7047B0FA80FCA2EB0C02A4
:103F7000CCF1280C60FA0CF093EA122F04BF00EB8E
:103F8000C25070474FEAC3707047130A5FEADC10F3
:103F900008BF7047F6E79CEA026F04D010EA5C0F96
:103FA00008BF0020704710B5FFF73BFF40DFF63E2B
:103FB00081F000407047FCF781BE30313233343538
:103FC0003637383941424344454640305800303155
:103FD0003233343536373839616263646566403070
:103FE000780004000008000000000000000200014A
:103FF000000010000000000000000000024000006F
:10400000000000A00000000005400000000000C803
:10401000000000000C4000000000409C0000000078
:10402000194000000020BCBE000000003440000029
:10403000BFC91B8E00000004B5400000504BCFD01C
:104040006607E2CF010000006C4100003E8251AAE9
:10405000DFEEA73401000000D9420000DCB5A0E289
:104060003A301F97FFFFFFFFB4450000FD25A0C8B1
:10407000E9A3C14FFFFFFFFFFF3F000000000080EA
:1040800000000000FF3F0000000000800000000072
:104090003F000000646563006964000072756E741F
:1040A000696D650068656C70000000006C69737470
:1040B0000000000068657800766F69642061746BA9
:1040C0005F726D30345F717569745F7472616E73A5
:1040D00028766F696429000075382061746B5F3839
:1040E0003236365F73656E645F636D6428753820A1
:1040F0002A636D642C7538202A61636B2C75313608
:10410000207761697474696D65290000766F696450
:104110002077726974655F61646472287533322038
:10412000616464722C7533322076616C2900000062
:1041300075333220726561645F616464722875331F
:10414000322061646472290094420008000000205B
:104150004C0100006C010008E44200084C01002002
:104160002C170000C80100081C00000043000000DC
:10417000F8FFFFFF0C0000000E0000000F00000021
:104180002E0000001001000043000000F8FFFFFFB8
:10419000004040404040404040404141414141405A
:1041A000404040404040404040404040404040400F
:1041B000400502020202020202020202020202029E
:1041C00002202020202020202020200202020202A3
:1041D00002029090909090901010101010101010FB
:1041E0001010101010101010101010100202020207
:1041F000020288888888888808080808080808084B
:104200000808080808080808080808080202020246
:10421000400000000000000000000000000000005E
:10422000000000000000000000000000000000008E
:10423000000000000000000000000000000000007E
:10424000000000000000000000000000000000006E
:10425000000000000000000000000000000000005E
:10426000000000000000000000000000000000004E
:10427000000000000000000000000000000000003E
:10428000000000000000000000000000000000002E
:10429000000000008102130A1390401B08A4041AB6
:1042A000AC041A98041AB4041A94041A9C04133D1A
:1042B00025140830411408153A1B080C0813DD1F9B
:1042C0001B08D8181A6D081AB80822381420DD30D7
:1042D000140829291B08D90413453123080402DCDA
:0442E00001000000D9
:0400000508000131BD
:00000001FF
